:020000040800F2
:100000007006002065020008A1020008A302000893
:10001000A5020008A7020008A902000800000000CD
:10002000000000000000000000000000AB0200081B
:10003000AD02000800000000AF0200085D030008E8
:10004000B3020008B3020008B3020008B3020008BC
:10005000B3020008B3020008B3020008B3020008AC
:10006000B3020008B3020008B3020008B30200089C
:10007000B3020008B3020008B3020008B30200088C
:10008000B3020008B3020008B3020008B30200087C
:10009000B3020008B3020008B3020008B30200086C
:1000A000B3020008B3020008B3020008B30200085C
:1000B000B3020008B3020008B3020008B30200084C
:1000C000B3020008B3020008B3020008B30200083C
:1000D000B3020008B3020008B3020008B30200082C
:1000E000B3020008B3020008B3020008B30200081C
:1000F000B3020008B3020008B3020008B30200080C
:10010000B3020008B3020008B3020008B3020008FB
:10011000B3020008B3020008B3020008B3020008EB
:10012000B3020008B3020008B3020008B3020008DB
:10013000B30200080000000000000000B302000845
:10014000B3020008B3020008B3020008B3020008BB
:10015000B3020008B3020008B3020008B3020008AB
:10016000B3020008B3020008B3020008B30200089B
:10017000B3020008B3020008B30200080000000048
:1001800000000000B30200080000000000000000B2
:10019000B30200080000000000000000B3020008E5
:1001A000000000000000000000000000B302000892
:1001B000B3020008B3020008B3020008B30200084B
:1001C000B302000800F002F800F03CF80AA090E842
:1001D000000C82448344AAF10107DA4501D100F002
:1001E00031F8AFF2090EBAE80F0013F0010F18BF93
:1001F000FB1A43F001031847D8040000F80400007C
:10020000103A24BF78C878C1FAD8520724BF30C842
:1002100030C144BF04680C60704700000023002414
:1002200000250026103A28BF78C1FBD8520728BF06
:1002300030C148BF0B6070471FB500F044FA1FBDC6
:1002400010B510BD00F050F81146FFF7F5FF00F0B3
:1002500033FA00F06EF803B4FFF7F2FF03BC00F0CE
:1002600075F8000016481749174B99423CBF50F8E3
:10027000042B41F8042BF8D314494FF000028B42B1
:1002800038BF43F8042BFAD3DFF84400016841F487
:1002900070010160BFF34F8FBFF36F8F0D480047B0
:1002A000FEE7FEE7FEE7FEE7FEE7FEE7FEE7FEE726
:1002B000FEE7FEE708480949094A0A4B7047000073
:1002C000F00600080000002010000020700600204A
:1002D00088ED00E0C50100087000002070060020D5
:1002E0007002002070020020754600F02BF8AE4628
:1002F00005006946534620F00700854618B020B532
:10030000FFF7D8FFBDE820404FF000064FF0000790
:100310004FF000084FF0000B21F00701AC46ACE8AD
:10032000C009ACE8C009ACE8C009ACE8C0098D461A
:10033000704710B50446AFF300802046BDE810407A
:10034000FFF789BF004870471000002001491820BE
:10035000ABBEFEE7260002007047000004480068BC
:1003600020B103480068401E014908607047000042
:100370000C0000206748006820F00F006549086005
:100380000846006840F0050008606348006840F0D7
:1003900001006149086000BF5F48006800F002008A
:1003A0000028F9D05C48006820F0F8005A4908603D
:1003B0000846006840F0800008600846006820F0A9
:1003C0008070086000BF5448006800F00070B0F111
:1003D000007FF8D05048001D006820F480004E498E
:1003E000091D08600846006808600846006820F09B
:1003F000706040F0007008600846006820F44030EB
:1004000008600846006847F6C071884340F43450DD
:100410004149091D08600846006820F03F0040F08F
:10042000080008603D483E4908603E4908603E4972
:10043000086039484030006840F08050364940310B
:1004400008603A48006840F440403849086008466F
:10045000006840F48030086000BF3448406800F411
:1004600080300028F9D03148006840F400302F492E
:10047000086000BF2D48406800F400300028F9D023
:1004800025488C30006840F0807023498C3108602A
:1004900021480830006820F0F0001F49083108604A
:1004A0000846006808600846006820F4E0500860CC
:1004B0000846006840F4A05008600846006820F430
:1004C000604008600846006840F400400860124838
:1004D000006840F080701049086000BF0E48006856
:1004E00000F000700028F9D00B480830006820F0B8
:1004F00003000949083108600846006840F002001E
:10050000086000BF04480830006800F00C000828AC
:10051000F8D17047003C0240003802400095BA0A0A
:1005200000000020080000200400002000700040AF
:1005300002205D4908605D4800685D4908405B49EC
:100540000860084600685B49084358490860081D70
:10055000006820F48850091D0860081D006854498F
:10056000084052490831086008460068514908436C
:100570004E4908310860081D00684D4908404B4944
:100580000C310860084600684FF0FF3008604748AB
:10059000406A20F00F1145484162406A20F0011185
:1005A0004248416240481030006840F001003E4936
:1005B000103108600806806800F0070009068860AE
:1005C0000846006820F070000860592088626320A7
:1005D000C8623648006820F4701034490860084644
:1005E000006840F420100860081D006820F4C06016
:1005F000091D0860081D006820F47010091D0860BE
:100600000846006840F4A0100860081D006820F447
:100610007010091D0860084600684FF0FF30086040
:100620002248406A20F47F6120484162406A20F4F9
:1006300088711E4841620005806920F4E6404FF051
:10064000804188610846806940F4066088610846F8
:10065000006A20F0200008620846006A40F010009E
:1006600008620846C06920F07300C8610846C06986
:1006700040F06800C8610846006A20F40070086213
:100680000846006A40F4807008620020C8638863EE
:1006900048620846006840F00100086008460068AB
:1006A00040F080000860704730380240000402408B
:1006B000FFFFFCFC00000101FFF75CFEFFF738FFC5
:1006C00000E000BFFDE74FF04070E1EE100A704718
:1006D000F0060008000000201000000000020008E2
:1006E0000007000810000020600600001C0200083F
:1006F00000000000000000000000000000000000FA
:04000005080001C529
:00000001FF
