:020000040800F2
:100000007006002065020008A1020008A302000893
:10001000A5020008A7020008A902000800000000CD
:10002000000000000000000000000000AB0200081B
:10003000AD02000800000000AF0200085D030008E8
:10004000B3020008B3020008B3020008B3020008BC
:10005000B3020008B3020008B3020008B3020008AC
:10006000B3020008B3020008B3020008B30200089C
:10007000B3020008B3020008B3020008B30200088C
:10008000B3020008B3020008B3020008B30200087C
:10009000B3020008B3020008B3020008B30200086C
:1000A000B3020008B3020008B3020008B30200085C
:1000B000B3020008B3020008B3020008B30200084C
:1000C000B3020008B3020008B3020008B30200083C
:1000D000B3020008B3020008B3020008B30200082C
:1000E000B3020008B3020008B3020008B30200081C
:1000F000B3020008B3020008B3020008B30200080C
:10010000B3020008B3020008B3020008B3020008FB
:10011000B3020008B3020008B3020008B3020008EB
:10012000B3020008B3020008B3020008B3020008DB
:10013000B30200080000000000000000B302000845
:10014000B3020008B3020008B3020008B3020008BB
:10015000B3020008B3020008B3020008B3020008AB
:10016000B3020008B3020008B3020008B30200089B
:10017000B3020008B3020008B30200080000000048
:1001800000000000B30200080000000000000000B2
:10019000B30200080000000000000000B3020008E5
:1001A000000000000000000000000000B302000892
:1001B000B3020008B3020008B3020008B30200084B
:1001C000B302000800F002F800F03CF80AA090E842
:1001D000000C82448344AAF10107DA4501D100F002
:1001E00031F8AFF2090EBAE80F0013F0010F18BF93
:1001F000FB1A43F0010318476C0400008C04000054
:10020000103A24BF78C878C1FAD8520724BF30C842
:1002100030C144BF04680C60704700000023002414
:1002200000250026103A28BF78C1FBD8520728BF06
:1002300030C148BF0B6070471FB500F00DFA1FBDFD
:1002400010B510BD00F050F81146FFF7F5FF00F0B3
:10025000FBF900F06EF803B4FFF7F2FF03BC00F007
:1002600075F8000016481749174B99423CBF50F8E3
:10027000042B41F8042BF8D314494FF000028B42B1
:1002800038BF43F8042BFAD3DFF84400016841F487
:1002900070010160BFF34F8FBFF36F8F0D480047B0
:1002A000FEE7FEE7FEE7FEE7FEE7FEE7FEE7FEE726
:1002B000FEE7FEE708480949094A0A4B7047000073
:1002C00084060008000000201000002070060020B6
:1002D00088ED00E0C50100087000002070060020D5
:1002E0007002002070020020754600F02BF8AE4628
:1002F00005006946534620F00700854618B020B532
:10030000FFF7D8FFBDE820404FF000064FF0000790
:100310004FF000084FF0000B21F00701AC46ACE8AD
:10032000C009ACE8C009ACE8C009ACE8C0098D461A
:10033000704710B50446AFF300802046BDE810407A
:10034000FFF789BF004870471000002001491820BE
:10035000ABBEFEE7260002007047000004480068BC
:1003600020B103480068401E014908607047000042
:100370000C0000206748006820F00F006549086005
:100380000846006840F0050008606348006840F0D7
:1003900001006149086000BF5F48006800F002008A
:1003A0000028F9D05C48006820F0F8005A4908603D
:1003B0000846006840F0800008600846006820F0A9
:1003C0008070086000BF5448006800F00070B0F111
:1003D000007FF8D05048001D006820F480004E498E
:1003E000091D08600846006808600846006820F09B
:1003F000706040F0007008600846006820F44030EB
:1004000008600846006847F6C071884340F43450DD
:100410004149091D08600846006820F03F0040F08F
:10042000080008603D483E4908603E4908603E4972
:10043000086039484030006840F08050364940310B
:1004400008603A48006840F440403849086008466F
:10045000006840F48030086000BF3448406800F411
:1004600080300028F9D03148006840F400302F492E
:10047000086000BF2D48406800F400300028F9D023
:1004800025488C30006840F0807023498C3108602A
:1004900021480830006820F0F0001F49083108604A
:1004A0000846006808600846006820F4E0500860CC
:1004B0000846006840F4A05008600846006820F430
:1004C000604008600846006840F400400860124838
:1004D000006840F080701049086000BF0E48006856
:1004E00000F000700028F9D00B480830006820F0B8
:1004F00003000949083108600846006840F002001E
:10050000086000BF04480830006800F00C000828AC
:10051000F8D17047003C0240003802400095BA0A0A
:1005200000000020080000200400002000700040AF
:1005300001202149086021480068214908401F49DD
:100540000860084600681F4908431C4908600846BF
:10055000406841F222118843184948600846806883
:1005600017490840154988600846806816490843BD
:10057000124988600846C068114908400F49C860A0
:100580000846C0684FF0FF30C8600846406A20F057
:100590000F110A484162406A20F0F0110748416299
:1005A000406A40F0011105484162406A40F0101174
:1005B00002484162704700003038024000000240AB
:1005C000F3F3FCFC08080001040401011D48006865
:1005D00040F001001B4908600806806800F0070031
:1005E000090688600846006820F070000860B320A3
:1005F00088626420C8620007806920F4E640886150
:100600000846806946F2600108434FF080418861E6
:100610000846006A20F02000086232208863400704
:10062000006A40F010000862002048620846006836
:1006300040F0010008600846006840F08000086053
:100640007047000040380240FFF794FEFFF770FF4C
:10065000FFF7BCFF00BFFEE74FF04070E1EE100A6D
:100660007047000084060008000000201000000011
:100670000002000894060008100000206006000038
:100680001C02000800000000000000000000000044
:040690000000000066
:04000005080001C529
:00000001FF
